:100000000C9446000C9465000C9465000C946500FB
:100010000C9465000C9465000C9465000C946500CC
:100020000C9465000C9465000C9465000C946500BC
:100030000C9465000C9465000C9465000C946500AC
:100040000C9465000C9465000C946C000C94650095
:100050000C9465000C9465000C9465000C9465008C
:100060000C9465000C9465000C9465000C9465007C
:100070000C9465000C9465000C9465000C9465006C
:100080000C9465000C9465000C94650011241FBE4F
:10009000CFEFD0E1DEBFCDBF11E0A0E0B1E0E2E400
:1000A000F1E000E00BBF02C007900D92A231B10752
:1000B000D9F711E0A2E1B1E001C01D92A431B1076E
:1000C000E1F70E9496000C949F000C9400008FE5CD
:1000D00089B980E98AB908951F920F920FB60F92DD
:1000E0000BB60F9211248F93EF93FF938CB18093F3
:1000F00013018091130180538093120180911201AA
:100100008A3018F080E180931201E0911201F0E052
:10011000E050FF4F808188BBFF91EF918F910F904E
:100120000BBE0F900FBE0F901F9018958FEF87BBDF
:1001300018BA8FE589B980E98AB97894FFCFF89425
:02014000FFCFEF
:100142003F065B4F666D7D077F6F777C395E797105
:020152000000AB
:00000001FF
