:100000000C9446000C945D000C945D000C945D0013
:100010000C945D000C945D000C945D000C945D00EC
:100020000C945D000C945D000C945D000C945D00DC
:100030000C945D000C945D000C945D000C945D00CC
:100040000C945D000C945D000C945D000C945D00BC
:100050000C945D000C945D000C945D000C945D00AC
:100060000C945D000C945D000C945D000C945D009C
:100070000C945D000C945D000C945D000C945D008C
:100080000C945D000C945D000C945D0011241FBE67
:10009000CFEFD0E1DEBFCDBF11E0A0E0B1E0E8E7F7
:1000A000F1E000E00BBF02C007900D92A030B10755
:1000B000D9F70E945F000C94BA000C9400001F93C3
:1000C0008FEF809361008ABB11BA11E04AEF50E0D4
:1000D000B2E0A4E038E061E070E010936200CA0191
:1000E0000197F1F780B3877011F086958F5FB09319
:1000F0006200FA013197F1F720B3277019F0822FCF
:1001000086958C5FA0936200FA013197F1F720B3D6
:10011000277019F0822F8695895F30936200FA016B
:100120003197F1F720B3277021F0822F8695865FF3
:100130000EC08823E9F0893050F490E00197FB016C
:1001400002C0EE0FFF1F8A95E2F7CF0111C0893080
:1001500011F481E80DC08A3011F48FE009C08B30B2
:1001600011F48FEF05C08C3011F480EF01C081E0F5
:080170008BBBB3CFF894FFCF65
:00000001FF
