:100000000C9446000C9465000C9465000C946500FB
:100010000C9465000C9465000C9465000C946500CC
:100020000C9465000C9465000C9465000C946500BC
:100030000C9465000C9465000C9465000C946500AC
:100040000C9476000C9465000C9467000C94650089
:100050000C9465000C9465000C9465000C9465008C
:100060000C9465000C9465000C9465000C9465007C
:100070000C9465000C9465000C9465000C9465006C
:100080000C9465000C9465000C94650011241FBE4F
:10009000CFEFD0E1DEBFCDBF13E0A0E0B1E0EEE8EE
:1000A000FCE000E00BBF02C007900D92A832B10740
:1000B000D9F713E0A8E2B3E001C01D92A338B1075D
:1000C000E1F70E94A8000C9445060C9400001F92D2
:1000D0000F920FB60F9211248F938CB18093280347
:1000E0008F910F900FBE0F901F9018951F920F9237
:1000F0000FB60F9211242F938F939F9312BE80916E
:1001000029038233C0F02091CA0181E090E002C04F
:10011000880F991F2A95E2F788BB8091CA018F5FEB
:100120008093CA018091CA01883010F01092CA01F0
:100130001092290305C0809129038F5F80932903C2
:100140009F918F912F910F900FBE0F901F90189538
:10015000EF92FF920F931F93CF93DF938BEC91E07D
:100160009093800380937F0389ED91E090937E03C9
:1001700080937D038FEF8ABB0E94800187E083BF5D
:1001800081E087BF12BE8FB780688FBF00D080E04C
:1001900091E0ADB7BEB712969C938E9311970E94D3
:1001A0008D0300D000D000D0EDB7FEB731968CE4BF
:1001B00091E0ADB7BEB712969C938E93119784E7EA
:1001C00091E09383828380E891E0958384838CE43B
:1001D00090E0978386830E948D03EDB7FEB7389633
:1001E0000FB6F894FEBF0FBEEDBF89E8E82E81E0A0
:1001F000F82E0FE811E0CEE9D1E000D0ADB7BEB7E0
:100200001296FC92EE9211970E948D030F900F9020
:100210008DE393E040E450E060E070E00E94B201C2
:100220008DE393E00E942D01BFEF8F3F9B0731F4D8
:1002300000D0EDB7FEB7128301830AC08E5F9F4FD7
:10024000E1F600D0ADB7BEB71296DC93CE9311970E
:100250000E948D030F900F90D0CFEF92FF921F93CB
:10026000CF93DF93DC0110E091E017C0803219F4E6
:100270001C9291E011C0992379F0183018F02EEFFC
:100280003FEF2DC0E12FF0E0EE0FFF1FE65DFC4FCA
:10029000B183A0831F5F90E011968C91882331F782
:1002A0001123D9F0E0902A03F0902B03CCEED2E09A
:1002B0000FC0C7010E947603009749F4EA81FB81D1
:1002C000812F90E06AE273E009959C0108C02696B0
:1002D000688179816115710561F72FEF3FEFC901E1
:1002E000DF91CF911F91FF90EF9008955D9BFECF1E
:1002F0008CB980E090E008955F9BFECF8CB10895AB
:10030000109290008FE589B988E18AB908955D9BC4
:10031000FECF8CB908955F9BFECF8CB108951F93DB
:10032000CF93DF93EC0120E030E01DE00EC0FE0132
:10033000E20FF31FE081EA3019F45D9BFECF1CB998
:100340005D9BFECFECB92F5F3F4FC901A0E0B0E04D
:1003500084179507A607B70750F3C901DF91CF911E
:100360001F9108959F92AF92BF92CF92DF92EF922A
:10037000FF920F931F93CF93DF93EC015A016B0110
:100380000894A108B108C108D10890903C03EE245C
:10039000FF24870101C099245F9BFECF8CB1883078
:1003A00099F4E114F10401051105B1F387EE91E030
:1003B00043E050E060E070E00E948F010894E108A3
:1003C000F10801091109E8CF8A3019F4992019F7C9
:1003D00019C08D3089F18B3119F490923C0314C00F
:1003E000EA14FB040C051D05B8F6FE01EE0DFF1D19
:1003F00080835D9BFECF0894E11CF11C011D111D43
:100400008CB9CACF10923C03CE0DDF1D18828BEE43
:1004100091E042E050E060E070E00E948F01C7018F
:10042000DF91CF911F910F91FF90EF90DF90CF90D0
:10043000BF90AF909F90089581E080933C03E4CFFC
:1004400080E090E008950F931F93CF93DF9300D047
:100450008EEE91E0ADB7BEB712969C938E93119736
:100460000E948D0384E092E0EDB7FEB79283818312
:100470000E948D03CCEED2E00F900F9009E112E0C4
:100480001DC000D000D000D0EDB7FEB73196ADB79B
:10049000BEB712961C930E931197938382838C811F
:1004A0009D81958384830E948D032696EDB7FEB7C8
:1004B00036960FB6F894FEBF0FBEEDBF88819981C6
:1004C0000097F9F680E090E0DF91CF911F910F91B6
:1004D0000895019761F000D083E292E0EDB7FEB796
:1004E000928381830E948D030F900F9001C01BBAED
:1004F00080E090E00895019761F000D083E292E0FF
:10050000EDB7FEB7928381830E948D030F900F9009
:1005100002C08FEF8BBB80E090E00895CF92DF9216
:10052000EF92FF921F93CF93DF93EC016CE272E0A6
:1005300042E050E00E947F03009761F0CE016FE23D
:1005400072E042E050E00E947F03009719F08AE0D9
:1005500090E003C0229680E190E020E030E040E0AF
:1005600050E06C01EE24D7FCE094FE2C3CC0812FBF
:1005700080538A3078F4CA01B901A70196010E941C
:100580005703212F30E040E050E0205330404040FE
:10059000504025C0812F8156863078F4CA01B901B8
:1005A000A70196010E945703212F30E040E050E060
:1005B000275530404040504012C0812F8154863032
:1005C000A8F4CA01B901A70196010E945703212F7F
:1005D00030E040E050E02753304040405040260F8C
:1005E000371F481F591F1991112309F6B901CA0174
:1005F000DF91CF911F91FF90EF90DF90CF90089502
:10060000FB01029761F000D082E392E0EDB7FEB704
:10061000928381830E948D030F900F900FC082817F
:1006200093810E948E022BB381E090E002C0880F7C
:10063000991F6A95E2F7809582238BBB80E090E05A
:100640000895FB01029761F000D080E492E0EDB7DD
:10065000FEB7928381830E948D030F900F900EC08E
:10066000828193810E948E022BB381E090E002C0D0
:10067000880F991F6A95E2F7282B2BBB80E090E04A
:100680000895FB01029761F000D08DE492E0EDB790
:10069000FEB7928381830E948D030F900F9004C058
:1006A000828193810E948E0280E090E00895629F93
:1006B000D001739FF001829FE00DF11D649FE00D5A
:1006C000F11D929FF00D839FF00D749FF00D659FBB
:1006D000F00D9927729FB00DE11DF91F639FB00DBA
:1006E000E11DF91FBD01CF0111240895FB01DC01BB
:1006F0008D91019080190110D9F3990B0895FB0198
:10070000DC014150504030F08D910190801919F476
:100710000020B9F7881B990B0895DF93CF93CDB7CD
:10072000DEB7FE0135966191719180917F039091C2
:100730008003AF010E949F03CF91DF9108952F9214
:100740003F924F925F926F927F928F929F92AF9261
:10075000BF92CF92DF92EF92FF920F931F93DF939E
:10076000CF93CDB7DEB72B970FB6F894DEBF0FBE91
:10077000CDBF3C012B015A01FC01178216828381F7
:1007800081FD03C06FEF7FEFC6C19AE0892E1E0185
:100790000894211C311CF3012381F20123FD859172
:1007A00023FF81912F01882309F4B2C1853239F4E6
:1007B00023FD859123FF81912F01853229F490E05B
:1007C000B3010E94BB05E7CF982FFF24EE249924A4
:1007D000FFE1FF15D0F09B3269F09C3228F4903293
:1007E00059F0933291F40EC09D3249F0903369F480
:1007F00041E024C052E0F52A84E0F82A28C098E0BD
:10080000F92A25C0E0E1FE2A22C0F7FC29C0892F81
:1008100080538A3070F4F6FE05C0989C902C112409
:10082000980E15C0E89CE02C1124E80EF0E2FF2A97
:100830000EC09E3229F4F6FC6BC140E4F42A07C0D6
:100840009C3619F450E8F52A02C0983649F4F201B2
:1008500023FD959123FF91912F01992309F0B8CFA2
:10086000892F8554833018F08052833038F444E067
:1008700050E0A40EB51E5FE359830FC0933631F0EC
:10088000933779F0933509F056C020C0F501808187
:10089000898342E050E0A40EB51E610101E010E042
:1008A00012C0F501C080D180F6FC03C06FEF7FEF6E
:1008B00002C0692D70E042E050E0A40EB51EC601F2
:1008C0000E94B0058C015FE7F52214C0F501C080DD
:1008D000D180F6FC03C06FEF7FEF02C0692D70E09E
:1008E00042E050E0A40EB51EC6010E94A5058C0191
:1008F00050E8F52AF3FE07C01AC080E290E0B30189
:100900000E94BB05EA948E2D90E008171907A8F302
:100910000EC0F601F7FC8591F7FE81916F0190E022
:10092000B3010E94BB05E110EA940150104001158B
:10093000110579F7EAC0943611F0993669F5F7FE9A
:1009400008C0F501208131814281538184E090E02B
:100950000AC0F501808191819C01442737FD4095B3
:10096000542F82E090E0A80EB91E9FE6F92257FFAF
:1009700009C050954095309521953F4F4F4F5F4F9F
:10098000E0E8FE2ACA01B901A1012AE030E00E9494
:10099000E705D82ED21840C0953729F41F2D1F7EA9
:1009A0002AE030E01DC01F2D197F9F3661F090377F
:1009B00020F4983509F0ACC00FC0903739F0983763
:1009C00009F0A6C004C028E030E00AC0106114FDA0
:1009D000146020E130E004C014FD166020E132E034
:1009E00017FF08C0F501608171818281938144E025
:1009F00050E008C0F50180819181BC0180E090E069
:100A000042E050E0A40EB51EA1010E94E705D82ED9
:100A1000D2188FE7F82EF122F6FE0BC05EEFF5221A
:100A2000D91438F4F4FE07C0F2FC05C08FEEF822AA
:100A300002C01D2D01C0192DF4FE0DC0FE01ED0DEB
:100A4000F11D8081803319F499EEF92208C01F5FEF
:100A5000F2FE05C003C08F2D867809F01F5F0F2DB1
:100A6000F3FC14C0F0FE0FC01E1510F09D2C0BC03F
:100A70009D2C9E0C911A1E2D06C080E290E0B301C1
:100A80000E94BB051F5F1E15C0F304C01E1510F4A5
:100A9000E11A01C0EE2404FF0FC080E390E0B3012F
:100AA0000E94BB0502FF1DC001FD03C088E790E066
:100AB0000EC088E590E00BC0802F867891F001FF92
:100AC00002C08BE201C080E2F7FC8DE290E0B3014E
:100AD0000E94BB0506C080E390E0B3010E94BB0505
:100AE0009A94D914C0F3DA94F101ED0DF11D8081CF
:100AF00090E0B3010E94BB05DD20A9F706C080E2AB
:100B000090E0B3010E94BB05EA94EE20C1F743CE0A
:100B1000F30166817781CB012B960FB6F894DEBF87
:100B20000FBECDBFCF91DF911F910F91FF90EF903E
:100B3000DF90CF90BF90AF909F908F907F906F90FD
:100B40005F904F903F902F900895FC010590615069
:100B500070400110D8F7809590958E0F9F1F0895D3
:100B6000FC016150704001900110D8F7809590957C
:100B70008E0F9F1F08950F931F93CF93DF938C01C8
:100B8000EB018B8181FF1BC082FF0DC02E813F8155
:100B90008C819D812817390764F4E881F9810193DC
:100BA000F983E88306C0E885F985802F0995892BAC
:100BB00031F48E819F8101969F838E8302C00FEF57
:100BC0001FEFC801DF91CF911F910F910895FA0196
:100BD000AA27283051F1203181F1E8946F936E7F7C
:100BE0006E5F7F4F8F4F9F4FAF4FB1E03ED0B4E06D
:100BF0003CD0670F781F891F9A1FA11D680F791FAE
:100C00008A1F911DA11D6A0F711D811D911DA11DBE
:100C100020D009F468943F912AE0269F11243019CE
:100C2000305D3193DEF6CF010895462F4770405D69
:100C30004193B3E00FD0C9F7F6CF462F4F70405D18
:100C40004A3318F0495D31FD4052419302D0A9F773
:100C5000EACFB4E0A6959795879577956795BA956D
:100C6000C9F700976105710508959B01AC010A2E33
:100C700006945795479537952795BA95C9F7620F0A
:0E0C8000731F841F951FA01D0895F894FFCFC9
:100C8E000A0D55415254205072696E746620457893
:100C9E00616D706C653A207265746172676574205F
:100CAE007468652043206C6962726172792070727B
:100CBE00696E74662066756E6374696F6E20746FEC
:100CCE002074686520554152540A0D00436F6D70B3
:100CDE00696C6520446174615B25735D202C205422
:100CEE00696D655B25735D2C4C696E655B25645D76
:100CFE00200A0D004E6F762020392032303136001A
:100D0E0031363A34303A353800636D643E20004255
:100D1E00616420636F6D6D616E64210A0D00546F06
:100D2E006F206D616E7920617267756D656E74737B
:100D3E0020666F7220636F6D6D616E642070726FCE
:100D4E00636573736F72210A0D00010000000200CB
:100D5E00000000760100000000000000010000000D
:100D6E000000007C010000082008000D0A000A4166
:100D7E007661696C61626C6520636F6D6D616E6426
:100D8E00730A0D002D2D2D2D2D2D2D2D2D2D2D2DAF
:100D9E002D2D2D2D2D2D0A0D002536733A20257360
:100DAE000A0D0020616C6C6F6E0A0D003058003019
:100DBE007800206F666620205B6E756D5D0A0D00F3
:100DCE00206F6E20205B6E756D5D0A0D0020696EC2
:100DDE007620205B6E756D5D0A0D0068656C700087
:100DEE00446973706C6179206C697374206F66202E
:100DFE00636F6D6D616E6473006800616C69617321
:100E0E0020666F722068656C70003F006F6E004C3C
:100E1E004544204F4E006F6666004C4544204F46B9
:100E2E004600696E76004C454420546F67676C65CA
:100E3E0000616C6C6F6E004C454420414C4C204F51
:100E4E006E00616C6C6F6666004C454420414C4CE4
:100E5E00204F6666007368696674004C45442053E3
:100E6E0068696674204F6E2F4F6666005B02230220
:100E7E006002790223027B028A0223027B028C0229
:100E8E0021038F02960200039A02A2024103A602D8
:100E9E00B1027B02B702C2026902C902D502200268
:080EAE00DB020000000000005F
:00000001FF
