:100000000C9446000C945D000C945D000C945D0013
:100010000C945D000C945D000C945D000C945D00EC
:100020000C945D000C945D000C945D000C945D00DC
:100030000C945D000C945D000C945D000C945D00CC
:100040000C945D000C945D000C945D000C945D00BC
:100050000C945D000C945D000C945D000C945D00AC
:100060000C945D000C945D000C945D000C945D009C
:100070000C945D000C945D000C945D000C945D008C
:100080000C945D000C945D000C945D0011241FBE67
:10009000CFEFD0E1DEBFCDBF11E0A0E0B1E0EEEBED
:1000A000F1E000E00BBF02C007900D92A431B10750
:1000B000D9F70E94C5000C94DD000C940000E5E621
:1000C000F0E0808184608083000080818B7F80836A
:1000D0000895E5E6F0E090819E7F90838BBB808160
:1000E00084608083000080818B7F808388E893E137
:1000F0000197F1F708958FEF9FEF29E130E0F901C3
:100100003197F1F70197D9F7809165008D7F809342
:10011000650088E30E9469008CE00E94690081E02C
:100120000E94690080E197E229E130E0F90131970E
:10013000F1F70197D9F70895E5E6F0E09081916035
:1001400090838BBB808184608083000080818B7F63
:10015000808388E893E10197F1F70895CF93DF93C7
:10016000EC0103C00E949C00219688818823D1F76E
:10017000DF91CF910895892B19F4862F805802C002
:10018000862F80540E94690008958FEF8ABB809368
:1001900064001BBA109265000E947B0080E091E031
:1001A0000E94AE0081E090E064E070E00E94BB003D
:0E01B0008AE091E00E94AE00FFCFF894FFCFEE
:1001BE004861707079204461790057656C636F6D8A
:0401CE0065210000A7
:00000001FF
