:100000000C9446000C9465000C9465000C946500FB
:100010000C9465000C9465000C9465000C946500CC
:100020000C9465000C9465000C9465000C946500BC
:100030000C9465000C9465000C9465000C946500AC
:100040000C9467000C9465000C9465000C9465009A
:100050000C9465000C9465000C9465000C9465008C
:100060000C9465000C9465000C9465000C9465007C
:100070000C9465000C9465000C9465000C9465006C
:100080000C9465000C9465000C94650011241FBE4F
:10009000CFEFD0E1DEBFCDBF11E0A0E0B1E0ECEAF0
:1000A000F2E000E00BBF02C007900D92A231B10751
:1000B000D9F711E0A2E1B1E001C01D92A531B1076D
:1000C000E1F70E94E1000C9454010C9400001F928F
:1000D0000F920FB60F9211242F938F939F9380E767
:1000E00082BF80911401813049F480911201909176
:1000F00013010196909313018093120180911201D4
:10010000909113018F50974220F01092130110929A
:1001100012019F918F912F910F900FBE0F901F9002
:10012000189587E083BF80E782BF81E087BF08958D
:10013000EF92FF920F931F93A5E6B0E09C919F6012
:100140009C939C91977F9C9300E011E0F801E80F4D
:10015000F11D808188BB84EDE82E80E3F82EC70175
:100160000197F1F78C918F608C938C918B7F8C939E
:10017000F801E60FF11D808188BBC7010197F1F7F7
:100180008C918F608C938C918D7F8C93F801E40F10
:10019000F11D808188BBC7010197F1F78C918F60B9
:1001A0008C938C918E7F8C93020F111DF8018081AE
:1001B00088BBC7010197F1F71F910F91FF90EF9056
:1001C00008950F93CF93DF938FEF87BB80936400E5
:1001D00011BA18BA8093650087E083BF80E782BFB9
:1001E00081E087BF789480E000B303708823B9F47E
:1001F0000023A9F0013019F0023089F40AC080917F
:100200001401813019F41092140109C000931401F3
:1002100006C0109214011092130110921201C091A5
:100220001201D0911301809112019091130168EE97
:1002300073E00E944001482FE92F64E670E00E94BD
:1002400040019C016AE070E00E944001F82FC90162
:100250006AE070E00E944001362F842F9E2F64E6F2
:1002600070E00E944001462FCE0168EE73E00E94CC
:100270004001262F8F2F632F0E949800802FB4CF2C
:10028000AA1BBB1B51E107C0AA1FBB1FA617B707BC
:1002900010F0A61BB70B881F991F5A95A9F78095D8
:0C02A0009095BC01CD010895F894FFCFAB
:1002AC003F065B4F666D7D077F6F777C395E79719A
:0202BC00000040
:00000001FF
