:100000000C9446000C945D000C945D000C945D0013
:100010000C945D000C945D000C945D000C945D00EC
:100020000C945D000C945D000C945D000C945D00DC
:100030000C945D000C945D000C945D000C945D00CC
:100040000C945D000C945D000C945D000C945D00BC
:100050000C945D000C945D000C945D000C945D00AC
:100060000C945D000C945D000C945D000C945D009C
:100070000C945D000C945D000C945D000C945D008C
:100080000C945D000C945D000C945D0011241FBE67
:10009000CFEFD0E1DEBFCDBF11E0A0E0B1E0E2E400
:1000A000F1E000E00BBF02C007900D92A030B10755
:1000B000D9F70E9467000C949F000C94000020E088
:1000C00030E0892B11F421E030E0C901089511BA24
:1000D0008FEF8ABB81E08BBB21E030E069E170E00B
:1000E000A0E851E002C020E030E040B380E197E2B8
:1000F000FB013197F1F70197D9F72130310529F448
:100100008BB390E0880F991F02C08BB386958BBB91
:1001100044FF05C0232B71F421E030E003C02130FF
:10012000310529F48BB3882301F75BBBDECF2115A2
:100130003105D9F68BB38823B1F6ABBBD4CFF89495
:02014000FFCFEF
:00000001FF
