:100000000C9446000C945D000C945D000C945D0013
:100010000C945D000C945D000C945D000C945D00EC
:100020000C945D000C945D000C945D000C945D00DC
:100030000C945D000C945D000C945D000C945D00CC
:100040000C945D000C945D000C945D000C945D00BC
:100050000C945D000C945D000C945D000C945D00AC
:100060000C945D000C945D000C945D000C945D009C
:100070000C945D000C945D000C945D000C945D008C
:100080000C945D000C945D000C945D0011241FBE67
:10009000CFEFD0E1DEBFCDBF11E0A0E0B1E0E8EAF4
:1000A000F1E000E00BBF02C007900D92A431B10750
:1000B000D9F70E945F000C94D2000C940000CF93FB
:1000C000DF938FEF8ABB87BB20E030E0C8EAD1E640
:1000D00088B38F6088BBC398C9016AE070E00E9452
:1000E000BE00FC01E050FF4F80818BBBCE01019729
:1000F000F1F788B38F6088BBC298C90164E670E0ED
:100100000E94BE006AE070E00E94BE00FB01E05069
:10011000FF4F80818BBBCE010197F1F788B38F60D1
:1001200088BBC198C90168EE73E00E94BE0064E616
:1001300070E00E94BE00FB01E050FF4F80818BBB4E
:10014000CE010197F1F788B38F6088BBC098C901D1
:1001500068EE73E00E94BE00FB01E050FF4F80811B
:100160008BBBCE010197F1F72F5F3F4F87E2203124
:10017000380708F4ADCF20E030E0AACFAA1BBB1BA4
:1001800051E107C0AA1FBB1FA617B70710F0A61B97
:10019000B70B881F991F5A95A9F780959095BC01B8
:0801A000CD010895F894FFCF92
:1001A8003F065B4F666D7D077F6F00000000000112
:0401B8000204080035
:00000001FF
